{
  "address": "0x8ecF0A868Ae64901Bb173071142A6e3D5ec724aB",
  "abi": [
    {
      "inputs": [
        {
          "internalType": "address",
          "name": "vrfCoordinatorV2",
          "type": "address"
        },
        {
          "internalType": "uint64",
          "name": "subscriptionId",
          "type": "uint64"
        },
        {
          "internalType": "bytes32",
          "name": "gasLane",
          "type": "bytes32"
        },
        {
          "internalType": "uint32",
          "name": "callbackGasLimit",
          "type": "uint32"
        },
        {
          "internalType": "uint256",
          "name": "mintFee",
          "type": "uint256"
        },
        {
          "internalType": "string[3]",
          "name": "dogTokenUris",
          "type": "string[3]"
        }
      ],
      "stateMutability": "nonpayable",
      "type": "constructor"
    },
    {
      "inputs": [
        {
          "internalType": "address",
          "name": "have",
          "type": "address"
        },
        {
          "internalType": "address",
          "name": "want",
          "type": "address"
        }
      ],
      "name": "OnlyCoordinatorCanFulfill",
      "type": "error"
    },
    {
      "inputs": [],
      "name": "RandomIpfsNft__NeedMoreETH",
      "type": "error"
    },
    {
      "inputs": [],
      "name": "RandomIpfsNft__RangeOutOfBounds",
      "type": "error"
    },
    {
      "inputs": [],
      "name": "RandomIpfsNft__TransferFailed",
      "type": "error"
    },
    {
      "anonymous": false,
      "inputs": [
        {
          "indexed": true,
          "internalType": "address",
          "name": "owner",
          "type": "address"
        },
        {
          "indexed": true,
          "internalType": "address",
          "name": "approved",
          "type": "address"
        },
        {
          "indexed": true,
          "internalType": "uint256",
          "name": "tokenId",
          "type": "uint256"
        }
      ],
      "name": "Approval",
      "type": "event"
    },
    {
      "anonymous": false,
      "inputs": [
        {
          "indexed": true,
          "internalType": "address",
          "name": "owner",
          "type": "address"
        },
        {
          "indexed": true,
          "internalType": "address",
          "name": "operator",
          "type": "address"
        },
        {
          "indexed": false,
          "internalType": "bool",
          "name": "approved",
          "type": "bool"
        }
      ],
      "name": "ApprovalForAll",
      "type": "event"
    },
    {
      "anonymous": false,
      "inputs": [
        {
          "indexed": false,
          "internalType": "enum RandomIpfsNft.Breed",
          "name": "dogBreed",
          "type": "uint8"
        },
        {
          "indexed": false,
          "internalType": "address",
          "name": "minter",
          "type": "address"
        }
      ],
      "name": "NftMinted",
      "type": "event"
    },
    {
      "anonymous": false,
      "inputs": [
        {
          "indexed": true,
          "internalType": "uint256",
          "name": "requestId",
          "type": "uint256"
        },
        {
          "indexed": false,
          "internalType": "address",
          "name": "requester",
          "type": "address"
        }
      ],
      "name": "NftRequested",
      "type": "event"
    },
    {
      "anonymous": false,
      "inputs": [
        {
          "indexed": true,
          "internalType": "address",
          "name": "previousOwner",
          "type": "address"
        },
        {
          "indexed": true,
          "internalType": "address",
          "name": "newOwner",
          "type": "address"
        }
      ],
      "name": "OwnershipTransferred",
      "type": "event"
    },
    {
      "anonymous": false,
      "inputs": [
        {
          "indexed": true,
          "internalType": "address",
          "name": "from",
          "type": "address"
        },
        {
          "indexed": true,
          "internalType": "address",
          "name": "to",
          "type": "address"
        },
        {
          "indexed": true,
          "internalType": "uint256",
          "name": "tokenId",
          "type": "uint256"
        }
      ],
      "name": "Transfer",
      "type": "event"
    },
    {
      "inputs": [
        {
          "internalType": "address",
          "name": "to",
          "type": "address"
        },
        {
          "internalType": "uint256",
          "name": "tokenId",
          "type": "uint256"
        }
      ],
      "name": "approve",
      "outputs": [],
      "stateMutability": "nonpayable",
      "type": "function"
    },
    {
      "inputs": [
        {
          "internalType": "address",
          "name": "owner",
          "type": "address"
        }
      ],
      "name": "balanceOf",
      "outputs": [
        {
          "internalType": "uint256",
          "name": "",
          "type": "uint256"
        }
      ],
      "stateMutability": "view",
      "type": "function"
    },
    {
      "inputs": [
        {
          "internalType": "uint256",
          "name": "tokenId",
          "type": "uint256"
        }
      ],
      "name": "getApproved",
      "outputs": [
        {
          "internalType": "address",
          "name": "",
          "type": "address"
        }
      ],
      "stateMutability": "view",
      "type": "function"
    },
    {
      "inputs": [
        {
          "internalType": "uint256",
          "name": "moddedRng",
          "type": "uint256"
        }
      ],
      "name": "getBreedFromModdedRng",
      "outputs": [
        {
          "internalType": "enum RandomIpfsNft.Breed",
          "name": "",
          "type": "uint8"
        }
      ],
      "stateMutability": "pure",
      "type": "function"
    },
    {
      "inputs": [],
      "name": "getChanceArray",
      "outputs": [
        {
          "internalType": "uint256[3]",
          "name": "",
          "type": "uint256[3]"
        }
      ],
      "stateMutability": "pure",
      "type": "function"
    },
    {
      "inputs": [
        {
          "internalType": "uint256",
          "name": "index",
          "type": "uint256"
        }
      ],
      "name": "getDogTokenUris",
      "outputs": [
        {
          "internalType": "string",
          "name": "",
          "type": "string"
        }
      ],
      "stateMutability": "view",
      "type": "function"
    },
    {
      "inputs": [],
      "name": "getInitialized",
      "outputs": [
        {
          "internalType": "bool",
          "name": "",
          "type": "bool"
        }
      ],
      "stateMutability": "view",
      "type": "function"
    },
    {
      "inputs": [],
      "name": "getMintFee",
      "outputs": [
        {
          "internalType": "uint256",
          "name": "",
          "type": "uint256"
        }
      ],
      "stateMutability": "view",
      "type": "function"
    },
    {
      "inputs": [],
      "name": "getTokenCounter",
      "outputs": [
        {
          "internalType": "uint256",
          "name": "",
          "type": "uint256"
        }
      ],
      "stateMutability": "view",
      "type": "function"
    },
    {
      "inputs": [
        {
          "internalType": "address",
          "name": "owner",
          "type": "address"
        },
        {
          "internalType": "address",
          "name": "operator",
          "type": "address"
        }
      ],
      "name": "isApprovedForAll",
      "outputs": [
        {
          "internalType": "bool",
          "name": "",
          "type": "bool"
        }
      ],
      "stateMutability": "view",
      "type": "function"
    },
    {
      "inputs": [],
      "name": "name",
      "outputs": [
        {
          "internalType": "string",
          "name": "",
          "type": "string"
        }
      ],
      "stateMutability": "view",
      "type": "function"
    },
    {
      "inputs": [],
      "name": "owner",
      "outputs": [
        {
          "internalType": "address",
          "name": "",
          "type": "address"
        }
      ],
      "stateMutability": "view",
      "type": "function"
    },
    {
      "inputs": [
        {
          "internalType": "uint256",
          "name": "tokenId",
          "type": "uint256"
        }
      ],
      "name": "ownerOf",
      "outputs": [
        {
          "internalType": "address",
          "name": "",
          "type": "address"
        }
      ],
      "stateMutability": "view",
      "type": "function"
    },
    {
      "inputs": [
        {
          "internalType": "uint256",
          "name": "requestId",
          "type": "uint256"
        },
        {
          "internalType": "uint256[]",
          "name": "randomWords",
          "type": "uint256[]"
        }
      ],
      "name": "rawFulfillRandomWords",
      "outputs": [],
      "stateMutability": "nonpayable",
      "type": "function"
    },
    {
      "inputs": [],
      "name": "renounceOwnership",
      "outputs": [],
      "stateMutability": "nonpayable",
      "type": "function"
    },
    {
      "inputs": [],
      "name": "requestId",
      "outputs": [
        {
          "internalType": "uint256",
          "name": "",
          "type": "uint256"
        }
      ],
      "stateMutability": "view",
      "type": "function"
    },
    {
      "inputs": [],
      "name": "requestNft",
      "outputs": [
        {
          "internalType": "uint256",
          "name": "requestId",
          "type": "uint256"
        }
      ],
      "stateMutability": "payable",
      "type": "function"
    },
    {
      "inputs": [
        {
          "internalType": "uint256",
          "name": "",
          "type": "uint256"
        }
      ],
      "name": "s_requestIdToSender",
      "outputs": [
        {
          "internalType": "address",
          "name": "",
          "type": "address"
        }
      ],
      "stateMutability": "view",
      "type": "function"
    },
    {
      "inputs": [],
      "name": "s_tokenCounter",
      "outputs": [
        {
          "internalType": "uint256",
          "name": "",
          "type": "uint256"
        }
      ],
      "stateMutability": "view",
      "type": "function"
    },
    {
      "inputs": [
        {
          "internalType": "address",
          "name": "from",
          "type": "address"
        },
        {
          "internalType": "address",
          "name": "to",
          "type": "address"
        },
        {
          "internalType": "uint256",
          "name": "tokenId",
          "type": "uint256"
        }
      ],
      "name": "safeTransferFrom",
      "outputs": [],
      "stateMutability": "nonpayable",
      "type": "function"
    },
    {
      "inputs": [
        {
          "internalType": "address",
          "name": "from",
          "type": "address"
        },
        {
          "internalType": "address",
          "name": "to",
          "type": "address"
        },
        {
          "internalType": "uint256",
          "name": "tokenId",
          "type": "uint256"
        },
        {
          "internalType": "bytes",
          "name": "data",
          "type": "bytes"
        }
      ],
      "name": "safeTransferFrom",
      "outputs": [],
      "stateMutability": "nonpayable",
      "type": "function"
    },
    {
      "inputs": [
        {
          "internalType": "address",
          "name": "operator",
          "type": "address"
        },
        {
          "internalType": "bool",
          "name": "approved",
          "type": "bool"
        }
      ],
      "name": "setApprovalForAll",
      "outputs": [],
      "stateMutability": "nonpayable",
      "type": "function"
    },
    {
      "inputs": [
        {
          "internalType": "bytes4",
          "name": "interfaceId",
          "type": "bytes4"
        }
      ],
      "name": "supportsInterface",
      "outputs": [
        {
          "internalType": "bool",
          "name": "",
          "type": "bool"
        }
      ],
      "stateMutability": "view",
      "type": "function"
    },
    {
      "inputs": [],
      "name": "symbol",
      "outputs": [
        {
          "internalType": "string",
          "name": "",
          "type": "string"
        }
      ],
      "stateMutability": "view",
      "type": "function"
    },
    {
      "inputs": [
        {
          "internalType": "uint256",
          "name": "tokenId",
          "type": "uint256"
        }
      ],
      "name": "tokenURI",
      "outputs": [
        {
          "internalType": "string",
          "name": "",
          "type": "string"
        }
      ],
      "stateMutability": "view",
      "type": "function"
    },
    {
      "inputs": [
        {
          "internalType": "address",
          "name": "from",
          "type": "address"
        },
        {
          "internalType": "address",
          "name": "to",
          "type": "address"
        },
        {
          "internalType": "uint256",
          "name": "tokenId",
          "type": "uint256"
        }
      ],
      "name": "transferFrom",
      "outputs": [],
      "stateMutability": "nonpayable",
      "type": "function"
    },
    {
      "inputs": [
        {
          "internalType": "address",
          "name": "newOwner",
          "type": "address"
        }
      ],
      "name": "transferOwnership",
      "outputs": [],
      "stateMutability": "nonpayable",
      "type": "function"
    },
    {
      "inputs": [],
      "name": "withdraw",
      "outputs": [],
      "stateMutability": "nonpayable",
      "type": "function"
    }
  ],
  "transactionHash": "0xdad4e764a75a93201db5b2b8951e76f10fdfe9ba383161993ce7136e34b944bb",
  "args": [
    "0x2Ca8E0C643bDe4C2E08ab1fA0da3401AdAD7734D",
    "6061",
    "0x79d3d8832d904592c0bf9818b621522c988bb8b0c05cdc3b15aea1b6e8db0c15",
    "500000",
    "10000000000000000",
    [
      "ipfs://QmTrUxzZwxjmhTnJqRCP4eaW95MaNmiHr9ZFLykurhT2hv",
      "ipfs://QmcPtS5LpWxv6nSA6rmyMmQduvFRriSXkUDPHcjveDKb55",
      "ipfs://QmW7Xp8Jcxhou2FxVVQwktXRpzuEGEsATSPdfm4gpMbGUQ"
    ]
  ],
  "numDeployments": 1,
  "solcInputHash": "9ca159812107ffa8eb94d888607efcd9",
  "bytecode": "0x6101206040523480156200001257600080fd5b50604051620048be380380620048be8339818101604052810190620000389190620005f8565b6040518060400160405280600f81526020017f52616e646f6d2049504653204e465400000000000000000000000000000000008152506040518060400160405280600381526020017f5246540000000000000000000000000000000000000000000000000000000000815250878073ffffffffffffffffffffffffffffffffffffffff1660808173ffffffffffffffffffffffffffffffffffffffff1660601b81525050508160009080519060200190620000f5929190620002bf565b5080600190805190602001906200010e929190620002bf565b5050506200013162000125620001f160201b60201c565b620001f960201b60201c565b8573ffffffffffffffffffffffffffffffffffffffff1660a08173ffffffffffffffffffffffffffffffffffffffff1660601b815250508263ffffffff166101008163ffffffff1660e01b815250508360e081815250508467ffffffffffffffff1660c08167ffffffffffffffff1660c01b8152505080600b906003620001ba92919062000350565b5081600c819055506000600a819055506001600d60006101000a81548160ff02191690831515021790555050505050505062000953565b600033905090565b6000600760009054906101000a900473ffffffffffffffffffffffffffffffffffffffff16905081600760006101000a81548173ffffffffffffffffffffffffffffffffffffffff021916908373ffffffffffffffffffffffffffffffffffffffff1602179055508173ffffffffffffffffffffffffffffffffffffffff168173ffffffffffffffffffffffffffffffffffffffff167f8be0079c531659141344cd1fd0a4f28419497f9722a3daafe3b4186f6b6457e060405160405180910390a35050565b828054620002cd90620007dd565b90600052602060002090601f016020900481019282620002f157600085556200033d565b82601f106200030c57805160ff19168380011785556200033d565b828001600101855582156200033d579182015b828111156200033c5782518255916020019190600101906200031f565b5b5090506200034c9190620003b7565b5090565b828054828255906000526020600020908101928215620003a4579160200282015b82811115620003a357825182908051906020019062000392929190620002bf565b509160200191906001019062000371565b5b509050620003b39190620003d6565b5090565b5b80821115620003d2576000816000905550600101620003b8565b5090565b5b80821115620003fa5760008181620003f09190620003fe565b50600101620003d7565b5090565b5080546200040c90620007dd565b6000825580601f1062000420575062000441565b601f016020900490600052602060002090810190620004409190620003b7565b5b50565b60006200045b6200045584620006dc565b620006b3565b90508082856020860282011115620004785762000477620008ac565b5b60005b85811015620004cd57815167ffffffffffffffff811115620004a257620004a1620008a7565b5b808601620004b1898262000580565b855260208501945060208401935050506001810190506200047b565b5050509392505050565b6000620004ee620004e88462000705565b620006b3565b9050828152602081018484840111156200050d576200050c620008b1565b5b6200051a848285620007a7565b509392505050565b6000815190506200053381620008d1565b92915050565b600082601f830112620005515762000550620008a7565b5b60036200056084828562000444565b91505092915050565b6000815190506200057a81620008eb565b92915050565b600082601f830112620005985762000597620008a7565b5b8151620005aa848260208601620004d7565b91505092915050565b600081519050620005c48162000905565b92915050565b600081519050620005db816200091f565b92915050565b600081519050620005f28162000939565b92915050565b60008060008060008060c08789031215620006185762000617620008bb565b5b60006200062889828a0162000522565b96505060206200063b89828a01620005e1565b95505060406200064e89828a0162000569565b94505060606200066189828a01620005ca565b93505060806200067489828a01620005b3565b92505060a087015167ffffffffffffffff811115620006985762000697620008b6565b5b620006a689828a0162000539565b9150509295509295509295565b6000620006bf620006d2565b9050620006cd828262000813565b919050565b6000604051905090565b600067ffffffffffffffff821115620006fa57620006f962000878565b5b602082029050919050565b600067ffffffffffffffff82111562000723576200072262000878565b5b6200072e82620008c0565b9050602081019050919050565b6000620007488262000759565b9050919050565b6000819050919050565b600073ffffffffffffffffffffffffffffffffffffffff82169050919050565b6000819050919050565b600063ffffffff82169050919050565b600067ffffffffffffffff82169050919050565b60005b83811015620007c7578082015181840152602081019050620007aa565b83811115620007d7576000848401525b50505050565b60006002820490506001821680620007f657607f821691505b602082108114156200080d576200080c62000849565b5b50919050565b6200081e82620008c0565b810181811067ffffffffffffffff8211171562000840576200083f62000878565b5b80604052505050565b7f4e487b7100000000000000000000000000000000000000000000000000000000600052602260045260246000fd5b7f4e487b7100000000000000000000000000000000000000000000000000000000600052604160045260246000fd5b600080fd5b600080fd5b600080fd5b600080fd5b600080fd5b6000601f19601f8301169050919050565b620008dc816200073b565b8114620008e857600080fd5b50565b620008f6816200074f565b81146200090257600080fd5b50565b620009108162000779565b81146200091c57600080fd5b50565b6200092a8162000783565b81146200093657600080fd5b50565b620009448162000793565b81146200095057600080fd5b50565b60805160601c60a05160601c60c05160c01c60e0516101005160e01c613f13620009ab60003960006110940152600061105001526000611071015260006110140152600081816109ae0152610a020152613f136000f3fe6080604052600436106101b65760003560e01c806370a08231116100ec578063a51cccf31161008a578063c87b56dd11610064578063c87b56dd14610600578063e985e9c51461063d578063ee89dab41461067a578063f2fde38b146106a5576101b6565b8063a51cccf31461057c578063aa152491146105b9578063b88d4fde146105d7576101b6565b80638da5cb5b116100c65780638da5cb5b146104c057806395d89b41146104eb578063a22cb46514610516578063a36f573b1461053f576101b6565b806370a0823114610441578063715018a61461047e5780637a5caab314610495576101b6565b806323b872dd1161015957806342842e0e1161013357806342842e0e146103855780635dacf5f4146103ae5780636352211e146103d95780636e02007d14610416576101b6565b806323b872dd146103085780633af25975146103315780633ccfd60b1461036e576101b6565b8063081812fc11610195578063081812fc1461024e578063095ea7b31461028b5780630b21a83b146102b45780631fe543e3146102df576101b6565b80626d6cae146101bb57806301ffc9a7146101e657806306fdde0314610223575b600080fd5b3480156101c757600080fd5b506101d06106ce565b6040516101dd91906135ca565b60405180910390f35b3480156101f257600080fd5b5061020d60048036038101906102089190612d6c565b6106d4565b60405161021a9190613306565b60405180910390f35b34801561022f57600080fd5b506102386107b6565b60405161024591906133b8565b60405180910390f35b34801561025a57600080fd5b5061027560048036038101906102709190612dc6565b610848565b604051610282919061325b565b60405180910390f35b34801561029757600080fd5b506102b260048036038101906102ad9190612d2c565b61088e565b005b3480156102c057600080fd5b506102c96109a6565b6040516102d691906135ca565b60405180910390f35b3480156102eb57600080fd5b5061030660048036038101906103019190612e20565b6109ac565b005b34801561031457600080fd5b5061032f600480360381019061032a9190612c16565b610a6c565b005b34801561033d57600080fd5b5061035860048036038101906103539190612dc6565b610acc565b60405161036591906133b8565b60405180910390f35b34801561037a57600080fd5b50610383610b7c565b005b34801561039157600080fd5b506103ac60048036038101906103a79190612c16565b610c30565b005b3480156103ba57600080fd5b506103c3610c50565b6040516103d091906132eb565b60405180910390f35b3480156103e557600080fd5b5061040060048036038101906103fb9190612dc6565b610c7b565b60405161040d919061325b565b60405180910390f35b34801561042257600080fd5b5061042b610d02565b60405161043891906135ca565b60405180910390f35b34801561044d57600080fd5b5061046860048036038101906104639190612ba9565b610d0c565b60405161047591906135ca565b60405180910390f35b34801561048a57600080fd5b50610493610dc4565b005b3480156104a157600080fd5b506104aa610dd8565b6040516104b791906135ca565b60405180910390f35b3480156104cc57600080fd5b506104d5610de2565b6040516104e2919061325b565b60405180910390f35b3480156104f757600080fd5b50610500610e0c565b60405161050d91906133b8565b60405180910390f35b34801561052257600080fd5b5061053d60048036038101906105389190612cec565b610e9e565b005b34801561054b57600080fd5b5061056660048036038101906105619190612dc6565b610eb4565b604051610573919061325b565b60405180910390f35b34801561058857600080fd5b506105a3600480360381019061059e9190612dc6565b610ee7565b6040516105b09190613374565b60405180910390f35b6105c1610fb3565b6040516105ce91906135ca565b60405180910390f35b3480156105e357600080fd5b506105fe60048036038101906105f99190612c69565b6111b6565b005b34801561060c57600080fd5b5061062760048036038101906106229190612dc6565b611218565b60405161063491906133b8565b60405180910390f35b34801561064957600080fd5b50610664600480360381019061065f9190612bd6565b61132b565b6040516106719190613306565b60405180910390f35b34801561068657600080fd5b5061068f6113bf565b60405161069c9190613306565b60405180910390f35b3480156106b157600080fd5b506106cc60048036038101906106c79190612ba9565b6113d6565b005b60085481565b60007f80ac58cd000000000000000000000000000000000000000000000000000000007bffffffffffffffffffffffffffffffffffffffffffffffffffffffff1916827bffffffffffffffffffffffffffffffffffffffffffffffffffffffff1916148061079f57507f5b5e139f000000000000000000000000000000000000000000000000000000007bffffffffffffffffffffffffffffffffffffffffffffffffffffffff1916827bffffffffffffffffffffffffffffffffffffffffffffffffffffffff1916145b806107af57506107ae8261145a565b5b9050919050565b6060600080546107c590613883565b80601f01602080910402602001604051908101604052809291908181526020018280546107f190613883565b801561083e5780601f106108135761010080835404028352916020019161083e565b820191906000526020600020905b81548152906001019060200180831161082157829003601f168201915b5050505050905090565b6000610853826114c4565b6004600083815260200190815260200160002060009054906101000a900473ffffffffffffffffffffffffffffffffffffffff169050919050565b600061089982610c7b565b90508073ffffffffffffffffffffffffffffffffffffffff168373ffffffffffffffffffffffffffffffffffffffff16141561090a576040517f08c379a00000000000000000000000000000000000000000000000000000000081526004016109019061358a565b60405180910390fd5b8073ffffffffffffffffffffffffffffffffffffffff1661092961150f565b73ffffffffffffffffffffffffffffffffffffffff16148061095857506109578161095261150f565b61132b565b5b610997576040517f08c379a000000000000000000000000000000000000000000000000000000000815260040161098e906135aa565b60405180910390fd5b6109a18383611517565b505050565b600a5481565b7f000000000000000000000000000000000000000000000000000000000000000073ffffffffffffffffffffffffffffffffffffffff163373ffffffffffffffffffffffffffffffffffffffff1614610a5e57337f00000000000000000000000000000000000000000000000000000000000000006040517f1cf993f4000000000000000000000000000000000000000000000000000000008152600401610a55929190613276565b60405180910390fd5b610a6882826115d0565b5050565b610a7d610a7761150f565b82611845565b610abc576040517f08c379a0000000000000000000000000000000000000000000000000000000008152600401610ab39061340a565b60405180910390fd5b610ac78383836118da565b505050565b6060600b8281548110610ae257610ae1613a1c565b5b906000526020600020018054610af790613883565b80601f0160208091040260200160405190810160405280929190818152602001828054610b2390613883565b8015610b705780601f10610b4557610100808354040283529160200191610b70565b820191906000526020600020905b815481529060010190602001808311610b5357829003601f168201915b50505050509050919050565b610b84611bd4565b600047905060003373ffffffffffffffffffffffffffffffffffffffff1682604051610baf90613246565b60006040518083038185875af1925050503d8060008114610bec576040519150601f19603f3d011682016040523d82523d6000602084013e610bf1565b606091505b5050905080610c2c576040517fca7e25b700000000000000000000000000000000000000000000000000000000815260040160405180910390fd5b5050565b610c4b838383604051806020016040528060008152506111b6565b505050565b610c58612958565b6040518060600160405280600a8152602001601e81526020016064815250905090565b600080610c8783611c52565b9050600073ffffffffffffffffffffffffffffffffffffffff168173ffffffffffffffffffffffffffffffffffffffff161415610cf9576040517f08c379a0000000000000000000000000000000000000000000000000000000008152600401610cf09061356a565b60405180910390fd5b80915050919050565b6000600a54905090565b60008073ffffffffffffffffffffffffffffffffffffffff168273ffffffffffffffffffffffffffffffffffffffff161415610d7d576040517f08c379a0000000000000000000000000000000000000000000000000000000008152600401610d74906134ea565b60405180910390fd5b600360008373ffffffffffffffffffffffffffffffffffffffff1673ffffffffffffffffffffffffffffffffffffffff168152602001908152602001600020549050919050565b610dcc611bd4565b610dd66000611c8f565b565b6000600c54905090565b6000600760009054906101000a900473ffffffffffffffffffffffffffffffffffffffff16905090565b606060018054610e1b90613883565b80601f0160208091040260200160405190810160405280929190818152602001828054610e4790613883565b8015610e945780601f10610e6957610100808354040283529160200191610e94565b820191906000526020600020905b815481529060010190602001808311610e7757829003601f168201915b5050505050905090565b610eb0610ea961150f565b8383611d55565b5050565b60096020528060005260406000206000915054906101000a900473ffffffffffffffffffffffffffffffffffffffff1681565b600080600090506000610ef8610c50565b905060005b6003811015610f7b57828510158015610f2c5750818160038110610f2457610f23613a1c565b5b602002015185105b15610f4e57806002811115610f4457610f436139be565b5b9350505050610fae565b818160038110610f6157610f60613a1c565b5b602002015192508080610f73906138e6565b915050610efd565b506040517f12806c9d00000000000000000000000000000000000000000000000000000000815260040160405180910390fd5b919050565b6000600c54341015610ff1576040517f27e0dbf000000000000000000000000000000000000000000000000000000000815260040160405180910390fd5b611012604051806060016040528060328152602001613eac60329139611ec2565b7f000000000000000000000000000000000000000000000000000000000000000073ffffffffffffffffffffffffffffffffffffffff16635d3b1d307f00000000000000000000000000000000000000000000000000000000000000007f000000000000000000000000000000000000000000000000000000000000000060037f000000000000000000000000000000000000000000000000000000000000000060016040518663ffffffff1660e01b81526004016110d5959493929190613321565b602060405180830381600087803b1580156110ef57600080fd5b505af1158015611103573d6000803e3d6000fd5b505050506040513d601f19601f820116820180604052508101906111279190612df3565b9050336009600083815260200190815260200160002060006101000a81548173ffffffffffffffffffffffffffffffffffffffff021916908373ffffffffffffffffffffffffffffffffffffffff160217905550807ff873236e6cc0ecc5be1a9a35c95ee5b8d1ac4cc7bfef0cc5060391d6cc98e26b336040516111ab919061325b565b60405180910390a290565b6111c76111c161150f565b83611845565b611206576040517f08c379a00000000000000000000000000000000000000000000000000000000081526004016111fd9061340a565b60405180910390fd5b61121284848484611f5b565b50505050565b6060611223826114c4565b600060066000848152602001908152602001600020805461124390613883565b80601f016020809104026020016040519081016040528092919081815260200182805461126f90613883565b80156112bc5780601f10611291576101008083540402835291602001916112bc565b820191906000526020600020905b81548152906001019060200180831161129f57829003601f168201915b5050505050905060006112cd611fb7565b90506000815114156112e3578192505050611326565b600082511115611318578082604051602001611300929190613222565b60405160208183030381529060405292505050611326565b61132184611fce565b925050505b919050565b6000600560008473ffffffffffffffffffffffffffffffffffffffff1673ffffffffffffffffffffffffffffffffffffffff16815260200190815260200160002060008373ffffffffffffffffffffffffffffffffffffffff1673ffffffffffffffffffffffffffffffffffffffff16815260200190815260200160002060009054906101000a900460ff16905092915050565b6000600d60009054906101000a900460ff16905090565b6113de611bd4565b600073ffffffffffffffffffffffffffffffffffffffff168173ffffffffffffffffffffffffffffffffffffffff16141561144e576040517f08c379a00000000000000000000000000000000000000000000000000000000081526004016114459061344a565b60405180910390fd5b61145781611c8f565b50565b60007f01ffc9a7000000000000000000000000000000000000000000000000000000007bffffffffffffffffffffffffffffffffffffffffffffffffffffffff1916827bffffffffffffffffffffffffffffffffffffffffffffffffffffffff1916149050919050565b6114cd81612036565b61150c576040517f08c379a00000000000000000000000000000000000000000000000000000000081526004016115039061356a565b60405180910390fd5b50565b600033905090565b816004600083815260200190815260200160002060006101000a81548173ffffffffffffffffffffffffffffffffffffffff021916908373ffffffffffffffffffffffffffffffffffffffff160217905550808273ffffffffffffffffffffffffffffffffffffffff1661158a83610c7b565b73ffffffffffffffffffffffffffffffffffffffff167f8c5be1e5ebec7d5bd14f71427d1e84f3dd0314c0f7b2291e5b200ac8c7c3b92560405160405180910390a45050565b60006009600084815260200190815260200160002060009054906101000a900473ffffffffffffffffffffffffffffffffffffffff1690506000600a54905061164d6040518060400160405280601781526020017f436861696e6c696e6b2056524620526573706f6e646564000000000000000000815250611ec2565b6116a76040518060400160405280600a81526020017f776f7264206973202573000000000000000000000000000000000000000000008152508460008151811061169a57611699613a1c565b5b6020026020010151612077565b60006064846000815181106116bf576116be613a1c565b5b60200260200101516116d1919061392f565b905060006116de82610ee7565b905061171e6040518060400160405280601c81526020017f476f7420646f672062726565642e4d696e74696e6720616e204e465400000000815250611ec2565b6117288484612113565b6001600a600082825461173b91906136e2565b9250508190555061180483600b83600281111561175b5761175a6139be565b5b8154811061176c5761176b613a1c565b5b90600052602060002001805461178190613883565b80601f01602080910402602001604051908101604052809291908181526020018280546117ad90613883565b80156117fa5780601f106117cf576101008083540402835291602001916117fa565b820191906000526020600020905b8154815290600101906020018083116117dd57829003601f168201915b5050505050612131565b7f8a269f26b688e110e9cbd887d163dab35cae678fa353a0292de532c0cac1ecdc818560405161183592919061338f565b60405180910390a1505050505050565b60008061185183610c7b565b90508073ffffffffffffffffffffffffffffffffffffffff168473ffffffffffffffffffffffffffffffffffffffff1614806118935750611892818561132b565b5b806118d157508373ffffffffffffffffffffffffffffffffffffffff166118b984610848565b73ffffffffffffffffffffffffffffffffffffffff16145b91505092915050565b8273ffffffffffffffffffffffffffffffffffffffff166118fa82610c7b565b73ffffffffffffffffffffffffffffffffffffffff1614611950576040517f08c379a00000000000000000000000000000000000000000000000000000000081526004016119479061346a565b60405180910390fd5b600073ffffffffffffffffffffffffffffffffffffffff168273ffffffffffffffffffffffffffffffffffffffff1614156119c0576040517f08c379a00000000000000000000000000000000000000000000000000000000081526004016119b7906134aa565b60405180910390fd5b6119cd83838360016121a5565b8273ffffffffffffffffffffffffffffffffffffffff166119ed82610c7b565b73ffffffffffffffffffffffffffffffffffffffff1614611a43576040517f08c379a0000000000000000000000000000000000000000000000000000000008152600401611a3a9061346a565b60405180910390fd5b6004600082815260200190815260200160002060006101000a81549073ffffffffffffffffffffffffffffffffffffffff02191690556001600360008573ffffffffffffffffffffffffffffffffffffffff1673ffffffffffffffffffffffffffffffffffffffff168152602001908152602001600020600082825403925050819055506001600360008473ffffffffffffffffffffffffffffffffffffffff1673ffffffffffffffffffffffffffffffffffffffff16815260200190815260200160002060008282540192505081905550816002600083815260200190815260200160002060006101000a81548173ffffffffffffffffffffffffffffffffffffffff021916908373ffffffffffffffffffffffffffffffffffffffff160217905550808273ffffffffffffffffffffffffffffffffffffffff168473ffffffffffffffffffffffffffffffffffffffff167fddf252ad1be2c89b69c2b068fc378daa952ba7f163c4a11628f55a4df523b3ef60405160405180910390a4611bcf83838360016122cb565b505050565b611bdc61150f565b73ffffffffffffffffffffffffffffffffffffffff16611bfa610de2565b73ffffffffffffffffffffffffffffffffffffffff1614611c50576040517f08c379a0000000000000000000000000000000000000000000000000000000008152600401611c479061354a565b60405180910390fd5b565b60006002600083815260200190815260200160002060009054906101000a900473ffffffffffffffffffffffffffffffffffffffff169050919050565b6000600760009054906101000a900473ffffffffffffffffffffffffffffffffffffffff16905081600760006101000a81548173ffffffffffffffffffffffffffffffffffffffff021916908373ffffffffffffffffffffffffffffffffffffffff1602179055508173ffffffffffffffffffffffffffffffffffffffff168173ffffffffffffffffffffffffffffffffffffffff167f8be0079c531659141344cd1fd0a4f28419497f9722a3daafe3b4186f6b6457e060405160405180910390a35050565b8173ffffffffffffffffffffffffffffffffffffffff168373ffffffffffffffffffffffffffffffffffffffff161415611dc4576040517f08c379a0000000000000000000000000000000000000000000000000000000008152600401611dbb906134ca565b60405180910390fd5b80600560008573ffffffffffffffffffffffffffffffffffffffff1673ffffffffffffffffffffffffffffffffffffffff16815260200190815260200160002060008473ffffffffffffffffffffffffffffffffffffffff1673ffffffffffffffffffffffffffffffffffffffff16815260200190815260200160002060006101000a81548160ff0219169083151502179055508173ffffffffffffffffffffffffffffffffffffffff168373ffffffffffffffffffffffffffffffffffffffff167f17307eab39ab6107e8899845ad3d59bd9653f200f220920489ca2b5937696c3183604051611eb59190613306565b60405180910390a3505050565b611f5881604051602401611ed691906133b8565b6040516020818303038152906040527f41304fac000000000000000000000000000000000000000000000000000000007bffffffffffffffffffffffffffffffffffffffffffffffffffffffff19166020820180517bffffffffffffffffffffffffffffffffffffffffffffffffffffffff83818316178352505050506122d1565b50565b611f668484846118da565b611f72848484846122fa565b611fb1576040517f08c379a0000000000000000000000000000000000000000000000000000000008152600401611fa89061342a565b60405180910390fd5b50505050565b606060405180602001604052806000815250905090565b6060611fd9826114c4565b6000611fe3611fb7565b90506000815111612003576040518060200160405280600081525061202e565b8061200d84612491565b60405160200161201e929190613222565b6040516020818303038152906040525b915050919050565b60008073ffffffffffffffffffffffffffffffffffffffff1661205883611c52565b73ffffffffffffffffffffffffffffffffffffffff1614159050919050565b61210f828260405160240161208d9291906133da565b6040516020818303038152906040527fb60e72cc000000000000000000000000000000000000000000000000000000007bffffffffffffffffffffffffffffffffffffffffffffffffffffffff19166020820180517bffffffffffffffffffffffffffffffffffffffffffffffffffffffff83818316178352505050506122d1565b5050565b61212d828260405180602001604052806000815250612569565b5050565b61213a82612036565b612179576040517f08c379a00000000000000000000000000000000000000000000000000000000081526004016121709061350a565b60405180910390fd5b806006600084815260200190815260200160002090805190602001906121a092919061297a565b505050565b60018111156122c557600073ffffffffffffffffffffffffffffffffffffffff168473ffffffffffffffffffffffffffffffffffffffff16146122395780600360008673ffffffffffffffffffffffffffffffffffffffff1673ffffffffffffffffffffffffffffffffffffffff16815260200190815260200160002060008282546122319190613738565b925050819055505b600073ffffffffffffffffffffffffffffffffffffffff168373ffffffffffffffffffffffffffffffffffffffff16146122c45780600360008573ffffffffffffffffffffffffffffffffffffffff1673ffffffffffffffffffffffffffffffffffffffff16815260200190815260200160002060008282546122bc91906136e2565b925050819055505b5b50505050565b50505050565b60008151905060006a636f6e736f6c652e6c6f679050602083016000808483855afa5050505050565b600061231b8473ffffffffffffffffffffffffffffffffffffffff166125c4565b15612484578373ffffffffffffffffffffffffffffffffffffffff1663150b7a0261234461150f565b8786866040518563ffffffff1660e01b8152600401612366949392919061329f565b602060405180830381600087803b15801561238057600080fd5b505af19250505080156123b157506040513d601f19601f820116820180604052508101906123ae9190612d99565b60015b612434573d80600081146123e1576040519150601f19603f3d011682016040523d82523d6000602084013e6123e6565b606091505b5060008151141561242c576040517f08c379a00000000000000000000000000000000000000000000000000000000081526004016124239061342a565b60405180910390fd5b805181602001fd5b63150b7a0260e01b7bffffffffffffffffffffffffffffffffffffffffffffffffffffffff1916817bffffffffffffffffffffffffffffffffffffffffffffffffffffffff191614915050612489565b600190505b949350505050565b6060600060016124a0846125e7565b01905060008167ffffffffffffffff8111156124bf576124be613a4b565b5b6040519080825280601f01601f1916602001820160405280156124f15781602001600182028036833780820191505090505b509050600082602001820190505b60011561255e578080600190039150507f3031323334353637383961626364656600000000000000000000000000000000600a86061a8153600a85816125485761254761398f565b5b04945060008514156125595761255e565b6124ff565b819350505050919050565b612573838361273a565b61258060008484846122fa565b6125bf576040517f08c379a00000000000000000000000000000000000000000000000000000000081526004016125b69061342a565b60405180910390fd5b505050565b6000808273ffffffffffffffffffffffffffffffffffffffff163b119050919050565b600080600090507a184f03e93ff9f4daa797ed6e38ed64bf6a1f0100000000000000008310612645577a184f03e93ff9f4daa797ed6e38ed64bf6a1f010000000000000000838161263b5761263a61398f565b5b0492506040810190505b6d04ee2d6d415b85acef81000000008310612682576d04ee2d6d415b85acef810000000083816126785761267761398f565b5b0492506020810190505b662386f26fc1000083106126b157662386f26fc1000083816126a7576126a661398f565b5b0492506010810190505b6305f5e10083106126da576305f5e10083816126d0576126cf61398f565b5b0492506008810190505b61271083106126ff5761271083816126f5576126f461398f565b5b0492506004810190505b6064831061272257606483816127185761271761398f565b5b0492506002810190505b600a8310612731576001810190505b80915050919050565b600073ffffffffffffffffffffffffffffffffffffffff168273ffffffffffffffffffffffffffffffffffffffff1614156127aa576040517f08c379a00000000000000000000000000000000000000000000000000000000081526004016127a19061352a565b60405180910390fd5b6127b381612036565b156127f3576040517f08c379a00000000000000000000000000000000000000000000000000000000081526004016127ea9061348a565b60405180910390fd5b6128016000838360016121a5565b61280a81612036565b1561284a576040517f08c379a00000000000000000000000000000000000000000000000000000000081526004016128419061348a565b60405180910390fd5b6001600360008473ffffffffffffffffffffffffffffffffffffffff1673ffffffffffffffffffffffffffffffffffffffff16815260200190815260200160002060008282540192505081905550816002600083815260200190815260200160002060006101000a81548173ffffffffffffffffffffffffffffffffffffffff021916908373ffffffffffffffffffffffffffffffffffffffff160217905550808273ffffffffffffffffffffffffffffffffffffffff16600073ffffffffffffffffffffffffffffffffffffffff167fddf252ad1be2c89b69c2b068fc378daa952ba7f163c4a11628f55a4df523b3ef60405160405180910390a46129546000838360016122cb565b5050565b6040518060600160405280600390602082028036833780820191505090505090565b82805461298690613883565b90600052602060002090601f0160209004810192826129a857600085556129ef565b82601f106129c157805160ff19168380011785556129ef565b828001600101855582156129ef579182015b828111156129ee5782518255916020019190600101906129d3565b5b5090506129fc9190612a00565b5090565b5b80821115612a19576000816000905550600101612a01565b5090565b6000612a30612a2b8461360a565b6135e5565b90508083825260208201905082856020860282011115612a5357612a52613a7f565b5b60005b85811015612a835781612a698882612b7f565b845260208401935060208301925050600181019050612a56565b5050509392505050565b6000612aa0612a9b84613636565b6135e5565b905082815260208101848484011115612abc57612abb613a84565b5b612ac7848285613841565b509392505050565b600081359050612ade81613e4f565b92915050565b600082601f830112612af957612af8613a7a565b5b8135612b09848260208601612a1d565b91505092915050565b600081359050612b2181613e66565b92915050565b600081359050612b3681613e7d565b92915050565b600081519050612b4b81613e7d565b92915050565b600082601f830112612b6657612b65613a7a565b5b8135612b76848260208601612a8d565b91505092915050565b600081359050612b8e81613e94565b92915050565b600081519050612ba381613e94565b92915050565b600060208284031215612bbf57612bbe613a8e565b5b6000612bcd84828501612acf565b91505092915050565b60008060408385031215612bed57612bec613a8e565b5b6000612bfb85828601612acf565b9250506020612c0c85828601612acf565b9150509250929050565b600080600060608486031215612c2f57612c2e613a8e565b5b6000612c3d86828701612acf565b9350506020612c4e86828701612acf565b9250506040612c5f86828701612b7f565b9150509250925092565b60008060008060808587031215612c8357612c82613a8e565b5b6000612c9187828801612acf565b9450506020612ca287828801612acf565b9350506040612cb387828801612b7f565b925050606085013567ffffffffffffffff811115612cd457612cd3613a89565b5b612ce087828801612b51565b91505092959194509250565b60008060408385031215612d0357612d02613a8e565b5b6000612d1185828601612acf565b9250506020612d2285828601612b12565b9150509250929050565b60008060408385031215612d4357612d42613a8e565b5b6000612d5185828601612acf565b9250506020612d6285828601612b7f565b9150509250929050565b600060208284031215612d8257612d81613a8e565b5b6000612d9084828501612b27565b91505092915050565b600060208284031215612daf57612dae613a8e565b5b6000612dbd84828501612b3c565b91505092915050565b600060208284031215612ddc57612ddb613a8e565b5b6000612dea84828501612b7f565b91505092915050565b600060208284031215612e0957612e08613a8e565b5b6000612e1784828501612b94565b91505092915050565b60008060408385031215612e3757612e36613a8e565b5b6000612e4585828601612b7f565b925050602083013567ffffffffffffffff811115612e6657612e65613a89565b5b612e7285828601612ae4565b9150509250929050565b6000612e8883836131e6565b60208301905092915050565b612e9d8161376c565b82525050565b612eac81613671565b612eb6818461369f565b9250612ec182613667565b8060005b83811015612ef2578151612ed98782612e7c565b9650612ee483613692565b925050600181019050612ec5565b505050505050565b612f038161377e565b82525050565b612f128161378a565b82525050565b6000612f238261367c565b612f2d81856136aa565b9350612f3d818560208601613850565b612f4681613a93565b840191505092915050565b612f5a8161382f565b82525050565b6000612f6b82613687565b612f7581856136c6565b9350612f85818560208601613850565b612f8e81613a93565b840191505092915050565b6000612fa482613687565b612fae81856136d7565b9350612fbe818560208601613850565b80840191505092915050565b6000612fd7602d836136c6565b9150612fe282613aa4565b604082019050919050565b6000612ffa6032836136c6565b915061300582613af3565b604082019050919050565b600061301d6026836136c6565b915061302882613b42565b604082019050919050565b60006130406025836136c6565b915061304b82613b91565b604082019050919050565b6000613063601c836136c6565b915061306e82613be0565b602082019050919050565b60006130866024836136c6565b915061309182613c09565b604082019050919050565b60006130a96019836136c6565b91506130b482613c58565b602082019050919050565b60006130cc6029836136c6565b91506130d782613c81565b604082019050919050565b60006130ef602e836136c6565b91506130fa82613cd0565b604082019050919050565b60006131126020836136c6565b915061311d82613d1f565b602082019050919050565b60006131356020836136c6565b915061314082613d48565b602082019050919050565b60006131586018836136c6565b915061316382613d71565b602082019050919050565b600061317b6021836136c6565b915061318682613d9a565b604082019050919050565b600061319e6000836136bb565b91506131a982613de9565b600082019050919050565b60006131c1603d836136c6565b91506131cc82613dec565b604082019050919050565b6131e0816137d3565b82525050565b6131ef81613801565b82525050565b6131fe81613801565b82525050565b61320d8161380b565b82525050565b61321c8161381b565b82525050565b600061322e8285612f99565b915061323a8284612f99565b91508190509392505050565b600061325182613191565b9150819050919050565b60006020820190506132706000830184612e94565b92915050565b600060408201905061328b6000830185612e94565b6132986020830184612e94565b9392505050565b60006080820190506132b46000830187612e94565b6132c16020830186612e94565b6132ce60408301856131f5565b81810360608301526132e08184612f18565b905095945050505050565b60006060820190506133006000830184612ea3565b92915050565b600060208201905061331b6000830184612efa565b92915050565b600060a0820190506133366000830188612f09565b6133436020830187613213565b61335060408301866131d7565b61335d6060830185613204565b61336a6080830184613204565b9695505050505050565b60006020820190506133896000830184612f51565b92915050565b60006040820190506133a46000830185612f51565b6133b16020830184612e94565b9392505050565b600060208201905081810360008301526133d28184612f60565b905092915050565b600060408201905081810360008301526133f48185612f60565b905061340360208301846131f5565b9392505050565b6000602082019050818103600083015261342381612fca565b9050919050565b6000602082019050818103600083015261344381612fed565b9050919050565b6000602082019050818103600083015261346381613010565b9050919050565b6000602082019050818103600083015261348381613033565b9050919050565b600060208201905081810360008301526134a381613056565b9050919050565b600060208201905081810360008301526134c381613079565b9050919050565b600060208201905081810360008301526134e38161309c565b9050919050565b60006020820190508181036000830152613503816130bf565b9050919050565b60006020820190508181036000830152613523816130e2565b9050919050565b6000602082019050818103600083015261354381613105565b9050919050565b6000602082019050818103600083015261356381613128565b9050919050565b600060208201905081810360008301526135838161314b565b9050919050565b600060208201905081810360008301526135a38161316e565b9050919050565b600060208201905081810360008301526135c3816131b4565b9050919050565b60006020820190506135df60008301846131f5565b92915050565b60006135ef613600565b90506135fb82826138b5565b919050565b6000604051905090565b600067ffffffffffffffff82111561362557613624613a4b565b5b602082029050602081019050919050565b600067ffffffffffffffff82111561365157613650613a4b565b5b61365a82613a93565b9050602081019050919050565b6000819050919050565b600060039050919050565b600081519050919050565b600081519050919050565b6000602082019050919050565b600081905092915050565b600082825260208201905092915050565b600081905092915050565b600082825260208201905092915050565b600081905092915050565b60006136ed82613801565b91506136f883613801565b9250827fffffffffffffffffffffffffffffffffffffffffffffffffffffffffffffffff0382111561372d5761372c613960565b5b828201905092915050565b600061374382613801565b915061374e83613801565b92508282101561376157613760613960565b5b828203905092915050565b6000613777826137e1565b9050919050565b60008115159050919050565b6000819050919050565b60007fffffffff0000000000000000000000000000000000000000000000000000000082169050919050565b60008190506137ce82613e3b565b919050565b600061ffff82169050919050565b600073ffffffffffffffffffffffffffffffffffffffff82169050919050565b6000819050919050565b600063ffffffff82169050919050565b600067ffffffffffffffff82169050919050565b600061383a826137c0565b9050919050565b82818337600083830152505050565b60005b8381101561386e578082015181840152602081019050613853565b8381111561387d576000848401525b50505050565b6000600282049050600182168061389b57607f821691505b602082108114156138af576138ae6139ed565b5b50919050565b6138be82613a93565b810181811067ffffffffffffffff821117156138dd576138dc613a4b565b5b80604052505050565b60006138f182613801565b91507fffffffffffffffffffffffffffffffffffffffffffffffffffffffffffffffff82141561392457613923613960565b5b600182019050919050565b600061393a82613801565b915061394583613801565b9250826139555761395461398f565b5b828206905092915050565b7f4e487b7100000000000000000000000000000000000000000000000000000000600052601160045260246000fd5b7f4e487b7100000000000000000000000000000000000000000000000000000000600052601260045260246000fd5b7f4e487b7100000000000000000000000000000000000000000000000000000000600052602160045260246000fd5b7f4e487b7100000000000000000000000000000000000000000000000000000000600052602260045260246000fd5b7f4e487b7100000000000000000000000000000000000000000000000000000000600052603260045260246000fd5b7f4e487b7100000000000000000000000000000000000000000000000000000000600052604160045260246000fd5b600080fd5b600080fd5b600080fd5b600080fd5b600080fd5b6000601f19601f8301169050919050565b7f4552433732313a2063616c6c6572206973206e6f7420746f6b656e206f776e6560008201527f72206f7220617070726f76656400000000000000000000000000000000000000602082015250565b7f4552433732313a207472616e7366657220746f206e6f6e20455243373231526560008201527f63656976657220696d706c656d656e7465720000000000000000000000000000602082015250565b7f4f776e61626c653a206e6577206f776e657220697320746865207a65726f206160008201527f6464726573730000000000000000000000000000000000000000000000000000602082015250565b7f4552433732313a207472616e736665722066726f6d20696e636f72726563742060008201527f6f776e6572000000000000000000000000000000000000000000000000000000602082015250565b7f4552433732313a20746f6b656e20616c7265616479206d696e74656400000000600082015250565b7f4552433732313a207472616e7366657220746f20746865207a65726f2061646460008201527f7265737300000000000000000000000000000000000000000000000000000000602082015250565b7f4552433732313a20617070726f766520746f2063616c6c657200000000000000600082015250565b7f4552433732313a2061646472657373207a65726f206973206e6f74206120766160008201527f6c6964206f776e65720000000000000000000000000000000000000000000000602082015250565b7f45524337323155524953746f726167653a2055524920736574206f66206e6f6e60008201527f6578697374656e7420746f6b656e000000000000000000000000000000000000602082015250565b7f4552433732313a206d696e7420746f20746865207a65726f2061646472657373600082015250565b7f4f776e61626c653a2063616c6c6572206973206e6f7420746865206f776e6572600082015250565b7f4552433732313a20696e76616c696420746f6b656e2049440000000000000000600082015250565b7f4552433732313a20617070726f76616c20746f2063757272656e74206f776e6560008201527f7200000000000000000000000000000000000000000000000000000000000000602082015250565b50565b7f4552433732313a20617070726f76652063616c6c6572206973206e6f7420746f60008201527f6b656e206f776e6572206f7220617070726f76656420666f7220616c6c000000602082015250565b60038110613e4c57613e4b6139be565b5b50565b613e588161376c565b8114613e6357600080fd5b50565b613e6f8161377e565b8114613e7a57600080fd5b50565b613e8681613794565b8114613e9157600080fd5b50565b613e9d81613801565b8114613ea857600080fd5b5056fe46656520506169642e2047657474696e672052616e646f6d204e756d6265722066726f6d20436861696e6c696e6b20565246a2646970667358221220d62f31e4c379d8a60c0f0344ae9285f0e997a85045896f0dfc8f6d4fda8d832b64736f6c63430008070033",
  "devdoc": {
    "kind": "dev",
    "methods": {
      "approve(address,uint256)": {
        "details": "See {IERC721-approve}."
      },
      "balanceOf(address)": {
        "details": "See {IERC721-balanceOf}."
      },
      "getApproved(uint256)": {
        "details": "See {IERC721-getApproved}."
      },
      "isApprovedForAll(address,address)": {
        "details": "See {IERC721-isApprovedForAll}."
      },
      "name()": {
        "details": "See {IERC721Metadata-name}."
      },
      "owner()": {
        "details": "Returns the address of the current owner."
      },
      "ownerOf(uint256)": {
        "details": "See {IERC721-ownerOf}."
      },
      "renounceOwnership()": {
        "details": "Leaves the contract without owner. It will not be possible to call `onlyOwner` functions anymore. Can only be called by the current owner. NOTE: Renouncing ownership will leave the contract without an owner, thereby removing any functionality that is only available to the owner."
      },
      "safeTransferFrom(address,address,uint256)": {
        "details": "See {IERC721-safeTransferFrom}."
      },
      "safeTransferFrom(address,address,uint256,bytes)": {
        "details": "See {IERC721-safeTransferFrom}."
      },
      "setApprovalForAll(address,bool)": {
        "details": "See {IERC721-setApprovalForAll}."
      },
      "supportsInterface(bytes4)": {
        "details": "See {IERC165-supportsInterface}."
      },
      "symbol()": {
        "details": "See {IERC721Metadata-symbol}."
      },
      "tokenURI(uint256)": {
        "details": "See {IERC721Metadata-tokenURI}."
      },
      "transferFrom(address,address,uint256)": {
        "details": "See {IERC721-transferFrom}."
      },
      "transferOwnership(address)": {
        "details": "Transfers ownership of the contract to a new account (`newOwner`). Can only be called by the current owner."
      }
    },
    "version": 1
  },
  "userdoc": {
    "kind": "user",
    "methods": {},
    "version": 1
  },
  "storageLayout": {
    "storage": [
      {
        "astId": 292,
        "contract": "contracts/RandomIpfsNft.sol:RandomIpfsNft",
        "label": "_name",
        "offset": 0,
        "slot": "0",
        "type": "t_string_storage"
      },
      {
        "astId": 294,
        "contract": "contracts/RandomIpfsNft.sol:RandomIpfsNft",
        "label": "_symbol",
        "offset": 0,
        "slot": "1",
        "type": "t_string_storage"
      },
      {
        "astId": 298,
        "contract": "contracts/RandomIpfsNft.sol:RandomIpfsNft",
        "label": "_owners",
        "offset": 0,
        "slot": "2",
        "type": "t_mapping(t_uint256,t_address)"
      },
      {
        "astId": 302,
        "contract": "contracts/RandomIpfsNft.sol:RandomIpfsNft",
        "label": "_balances",
        "offset": 0,
        "slot": "3",
        "type": "t_mapping(t_address,t_uint256)"
      },
      {
        "astId": 306,
        "contract": "contracts/RandomIpfsNft.sol:RandomIpfsNft",
        "label": "_tokenApprovals",
        "offset": 0,
        "slot": "4",
        "type": "t_mapping(t_uint256,t_address)"
      },
      {
        "astId": 312,
        "contract": "contracts/RandomIpfsNft.sol:RandomIpfsNft",
        "label": "_operatorApprovals",
        "offset": 0,
        "slot": "5",
        "type": "t_mapping(t_address,t_mapping(t_address,t_bool))"
      },
      {
        "astId": 1358,
        "contract": "contracts/RandomIpfsNft.sol:RandomIpfsNft",
        "label": "_tokenURIs",
        "offset": 0,
        "slot": "6",
        "type": "t_mapping(t_uint256,t_string_storage)"
      },
      {
        "astId": 161,
        "contract": "contracts/RandomIpfsNft.sol:RandomIpfsNft",
        "label": "_owner",
        "offset": 0,
        "slot": "7",
        "type": "t_address"
      },
      {
        "astId": 2965,
        "contract": "contracts/RandomIpfsNft.sol:RandomIpfsNft",
        "label": "requestId",
        "offset": 0,
        "slot": "8",
        "type": "t_uint256"
      },
      {
        "astId": 2969,
        "contract": "contracts/RandomIpfsNft.sol:RandomIpfsNft",
        "label": "s_requestIdToSender",
        "offset": 0,
        "slot": "9",
        "type": "t_mapping(t_uint256,t_address)"
      },
      {
        "astId": 2971,
        "contract": "contracts/RandomIpfsNft.sol:RandomIpfsNft",
        "label": "s_tokenCounter",
        "offset": 0,
        "slot": "10",
        "type": "t_uint256"
      },
      {
        "astId": 2977,
        "contract": "contracts/RandomIpfsNft.sol:RandomIpfsNft",
        "label": "s_dogTokenUris",
        "offset": 0,
        "slot": "11",
        "type": "t_array(t_string_storage)dyn_storage"
      },
      {
        "astId": 2979,
        "contract": "contracts/RandomIpfsNft.sol:RandomIpfsNft",
        "label": "i_MintFee",
        "offset": 0,
        "slot": "12",
        "type": "t_uint256"
      },
      {
        "astId": 2981,
        "contract": "contracts/RandomIpfsNft.sol:RandomIpfsNft",
        "label": "s_initialized",
        "offset": 0,
        "slot": "13",
        "type": "t_bool"
      }
    ],
    "types": {
      "t_address": {
        "encoding": "inplace",
        "label": "address",
        "numberOfBytes": "20"
      },
      "t_array(t_string_storage)dyn_storage": {
        "base": "t_string_storage",
        "encoding": "dynamic_array",
        "label": "string[]",
        "numberOfBytes": "32"
      },
      "t_bool": {
        "encoding": "inplace",
        "label": "bool",
        "numberOfBytes": "1"
      },
      "t_mapping(t_address,t_bool)": {
        "encoding": "mapping",
        "key": "t_address",
        "label": "mapping(address => bool)",
        "numberOfBytes": "32",
        "value": "t_bool"
      },
      "t_mapping(t_address,t_mapping(t_address,t_bool))": {
        "encoding": "mapping",
        "key": "t_address",
        "label": "mapping(address => mapping(address => bool))",
        "numberOfBytes": "32",
        "value": "t_mapping(t_address,t_bool)"
      },
      "t_mapping(t_address,t_uint256)": {
        "encoding": "mapping",
        "key": "t_address",
        "label": "mapping(address => uint256)",
        "numberOfBytes": "32",
        "value": "t_uint256"
      },
      "t_mapping(t_uint256,t_address)": {
        "encoding": "mapping",
        "key": "t_uint256",
        "label": "mapping(uint256 => address)",
        "numberOfBytes": "32",
        "value": "t_address"
      },
      "t_mapping(t_uint256,t_string_storage)": {
        "encoding": "mapping",
        "key": "t_uint256",
        "label": "mapping(uint256 => string)",
        "numberOfBytes": "32",
        "value": "t_string_storage"
      },
      "t_string_storage": {
        "encoding": "bytes",
        "label": "string",
        "numberOfBytes": "32"
      },
      "t_uint256": {
        "encoding": "inplace",
        "label": "uint256",
        "numberOfBytes": "32"
      }
    }
  }
}